:020000040800F2
:1000000000000120010B0008510B0008510B0008F3
:10001000510B0008510B0008510B000800000000B4
:10002000000000000000000000000000510B00086C
:10003000510B000800000000510B0008510B000894
:10004000510B0008510B0008510B0008510B000820
:10005000510B0008510B0008510B0008510B000810
:10006000510B0008510B0008510B0008510B000800
:10007000510B0008510B0008510B0008510B0008F0
:10008000510B0008510B0008510B00080000000044
:10009000000000000000000000000000510B0008FC
:1000A000510B0008510B0008510B0008510B0008C0
:1000B000510B0008510B0008510B0008510B0008B0
:1000C000510B0008510B0008510B0008510B0008A0
:1000D000510B0008510B0008510B000800000000F4
:1000E000510B0008510B0008510B000800000000E4
:1000F000000000000000000000000000510B00089C
:1001000000000000510B0008510B0008510B0008C3
:1001100000000000000000000000000000000000DF
:10012000510B0008510B0008510B0008510B00083F
:10013000510B00080000000000000000000000005B
:10014000000000000000000000000000510B00084B
:10015000510B0008510B0008510B0008510B00080F
:10016000510B0008510B00080000000000000000C7
:10017000000000000000000000000000000000007F
:1001800000000000510B000800000000000000000B
:04019000510B000807
:1001940010B5054C237833B9044B13B10448AFF3BD
:1001A40000800123237010BD040000200000000023
:1001B4009C0B000808B5034B1BB103490348AFF37C
:1001C400008008BD00000000080000209C0B00080F
:1001D40053B94AB9002908BF00281CBF4FF0FF31AA
:1001E4004FF0FF3000F074B9ADF1080C6DE904CEA6
:1001F40000F006F8DDF804E0DDE9022304B07047FE
:100204002DE9F047089D04468E46002B4DD18A42C5
:10021400944669D9B2FA82F252B101FA02F3C2F1F8
:10022400200120FA01F10CFA02FC41EA030E944089
:100234004FEA1C48210CBEFBF8F61FFA8CF708FBAA
:1002440016E341EA034306FB07F199420AD91CEB82
:10025400030306F1FF3080F01F81994240F21C81B4
:10026400023E63445B1AA4B2B3FBF8F008FB1033FC
:1002740044EA034400FB07F7A7420AD91CEB040431
:1002840000F1FF3380F00A81A74240F20781644401
:10029400023840EA0640E41B00261DB1D440002386
:1002A400C5E900433146BDE8F0878B4209D9002DEA
:1002B40000F0EF800026C5E9000130463146BDE874
:1002C400F087B3FA83F6002E4AD18B4202D38242DE
:1002D40000F2F980841A61EB030301209E46002D8D
:1002E400E0D0C5E9004EDDE702B9FFDEB2FA82F2E2
:1002F400002A40F09280A1EB0C014FEA1C471FFA40
:100304008CFE0126200CB1FBF7F307FB131140EA26
:1003140001410EFB03F0884208D91CEB010103F1F3
:10032400FF3802D2884200F2CB804346091AA4B2B5
:10033400B1FBF7F007FB101144EA01440EFB00FE89
:10034400A64508D91CEB040400F1FF3102D2A645EE
:1003540000F2BB800846A4EB0E0440EA03409CE78D
:10036400C6F12007B34022FA07FC4CEA030C20FA3A
:1003740007F401FA06F31C43F9404FEA1C4900FA5A
:1003840006F3B1FBF9F8200C1FFA8CFE09FB1811D7
:1003940040EA014108FB0EF0884202FA06F20BD94A
:1003A4001CEB010108F1FF3A80F08880884240F29A
:1003B4008580A8F102086144091AA4B2B1FBF9F0DE
:1003C40009FB101144EA014100FB0EFE8E4508D9D9
:1003D4001CEB010100F1FF346CD28E456AD902385E
:1003E400614440EA0840A0FB0294A1EB0E01A14243
:1003F400C846A64656D353D05DB1B3EB080261EBB1
:100404000E0101FA07F722FA06F3F1401F43C5E98A
:10041400007100263146BDE8F087C2F12003D840C0
:100424000CFA02FC21FA03F3914001434FEA1C4702
:100434001FFA8CFEB3FBF7F007FB10360B0C43EAF4
:10044400064300FB0EF69E4204FA02F408D91CEBA4
:10045400030300F1FF382FD29E422DD902386344A2
:100464009B1B89B2B3FBF7F607FB163341EA034142
:1004740006FB0EF38B4208D91CEB010106F1FF3891
:1004840016D28B4214D9023E6144C91A46EA004688
:1004940038E72E46284605E70646E3E61846F8E61A
:1004A4004B45A9D2B9EB020864EB0C0E0138A3E763
:1004B4004646EAE7204694E74046D1E7D0467BE744
:1004C400023B614432E7304609E76444023842E7BC
:1004D400704700BF034AD2F8883043F47003C2F86F
:1004E4008830704700ED00E02DE9F04702460D68C2
:1004F40095FAA5F44FF0010EB4FA84F403264FF0F4
:100504000F0C35FA04F001D1BDE8F0870EFA04F3BC
:100514002B406DD04868471E012F1ED8D2F80880A2
:1005240093FAA3F7B7FA87F793FAA3F97F0006FAC9
:1005340007F728EA0708B9FA89F98F684FEA4909E1
:1005440007FA09F748EA07079760576827EA030894
:10055400CF685F4348EA07075760D2F80C8093FAE4
:10056400A3F7B7FA87F793FAA3F97F0006FA07F718
:1005740028EA0708B9FA89F90F694FEA490907FA1D
:1005840009F748EA07070228D7601DD193FAA3F7B1
:10059400B7FA87F7072FD1F814902BDCD2F820A0F4
:1005A40093FAA3F8B8FA88F893FAA3F7B7FA87F797
:1005B4004FEA88080CFA08F8BF002AEA080809FA82
:1005C40007F748EA07071762D2F8008093FAA3F7FF
:1005D400B7FA87F793FAA3F3B3FA83F37F0006FA23
:1005E40007F75B0028EA070700FA03F33B431360AD
:1005F400013486E7D2F824A01F0A97FAA7F8B8FABC
:1006040088F897FAA7F7B7FA87F74FEA88080CFA39
:1006140008F8BF002AEA080809FA07F748EA0707B2
:100624005762D1E7034B044A9B68C3F30313D35CBB
:10063400D840704700380240E80B0008034B044AD6
:100644009B68C3F38223D35CD840704700380240D0
:10065400F80B0008034B044A9B68C3F34233D35C92
:10066400D840704700380240F80B00080E4A0F4982
:10067400536813F4800F0E4B18BF0B46082810D193
:1006840050685168526800F03F00B3FBF0F0C1F3CA
:1006940088135843C2F3014301335B00B0FBF3F00A
:1006A40070470020704700BF0038024000127A00F3
:1006B4000024F400064B986800F00C00042803D0D2
:1006C400082803D1FFF7D2BF024870470248704799
:1006D4000038024000127A000024F40010B50446E9
:1006E400FFF7E8FF2060FFF79DFF6060FFF7A6FFBC
:1006F400A0606068FFF7AEFFE06010BD4FF47A734E
:10070400B0FBF3F04FF0E0230022013858619A6106
:1007140005221A6170470000014B1860704700BF42
:10072400000000207FB5C3689B0404460D4602D533
:10073400012004B070BD4B68C968C2680B432969C5
:100744000B43A96922F416420B4322F00C02134313
:10075400C3600369AA6823F44053134303614369E4
:100764006A6923F44073134343616846FFF7B6FF95
:10077400224B9C4228D103990029D9D02B68002B05
:10078400D6D0AA691920B2F5004FA1FB000124D1EB
:10079400DA184FF0000545EB0503FFF719FD642156
:1007A400B0FBF1F601FB1603DB003233B3FBF1F3CC
:1007B40003F007025B0002EB061203F4F873134420
:1007C4009BB2A3600020B4E70D4B9C4201D1029977
:1007D400D2E70C4B9C42ABD1CDE79A009B0FFFF7BD
:1007E400F7FC6422B0FBF2F102FB11031B0132336C
:1007F400B3FBF2F303EB0113E2E700BF0010014087
:10080400004400400014014008B500F02FF800F047
:1008140007F800F04FF9BDE8084000F037B90000D0
:100824001049114BCA6822F4E0621204120C1343FB
:10083400CB60CA68C2F30222C2F10700131D042868
:1008440028BF0420062B4FF0FF3303FA00F38CBFBC
:10085400033A0022DB4393401B01DBB281F82330CF
:10086400704700BF00ED00E00003FA050A4B5A6C24
:1008740042F480425A645A6C82B002F4804201927B
:10088400019A1A6C42F080521A641B6C03F0805374
:100894000093009B02B0704700380240024A13687C
:1008A40043F480331360704700380240024B1B68E6
:1008B400C3F34043036070470038024030B5074C2F
:1008C40041EA82126568064929400A431043606080
:1008D400626822F440321343636030BD0038024042
:1008E4000080BFFF024A136843F0807313607047AF
:1008F40000380240024B1B68C3F340630360704737
:1009040000380240034A936823F0F00318439060D0
:10091400704700BF00380240034A936823F4E05351
:1009240018439060704700BF00380240034A936840
:1009340023F4604318439060704700BF00380240BE
:10094400034A936823F0030318439060704700BF81
:1009540000380240024B9B6803F00C0303607047AD
:100964000038024007B5FFF799FF01A8FFF79EFF83
:10097400019B012BF9D10023542204214FF4800060
:10098400FFF79CFFFFF7AEFF01A8FFF7B3FF019B42
:10099400012BF9D10020FFF7B5FF4FF48050FFF78A
:1009A400BBFF0020FFF7C2FF0220FFF7C9FF01A829
:1009B400FFF7D0FF019B082BF9D10848FFF79EFEF3
:1009C4000648FFF7A9FE064AD2F88C3023F080735C
:1009D400C2F88C3003B05DF804FB00BF00BD010514
:1009E40000380240054B1A6B02431A631B6B82B03A
:1009F40018400190019B02B0704700BF00380240CC
:100A040070B51E4C26460FCE90B009AD0FC596E8C2
:100A140007001C3485E807000FCC03AD0FC594E82C
:100A2400030085E80300164B164C5A6C164842F036
:100A340010025A645A6C02F010020292029A1A6B63
:100A440042F001021A631B6B03F00103019303A933
:100A5400019BFFF749FD09A92046FFF763FE2369BF
:100A640023F490432361636923F02A036361E368F9
:100A740043F40053E36010B070BD00BFB40B000832
:100A8400003802400010014000000240034A13688D
:100A940023F4404343F40043136070470070004064
:100AA400034A136823F0070318431060704700BF1C
:100AB400003C024008B50220FFF7F2FF034A136826
:100AC40003F00703012BFAD108BD00BF003C02402C
:100AD40008B5FFF799FEFFF745FF00F003F8FFF7AD
:100AE4008FFFFEE708B50420FFF77CFF8020FFF7A7
:100AF40079FFBDE808400120FFF774BFDFF834D068
:100B04000D480E490E4A002302E0D458C450043361
:100B1400C4188C42F9D30B4A0B4C002301E0136038
:100B24000432A242FBD3FFF7D5FC00F011F8FFF723
:100B3400CFFF7047000001200000002004000020C7
:100B4400100C00080400002020000020FEE7000034
:100B540070B50D4D0D4C641BA4100026A64209D19E
:100B64000B4D0C4C00F018F8641BA4100026A64290
:100B740005D170BD55F8043B98470136EEE755F8AA
:100B8400043B98470136F2E7080C0008080C0008FB
:100B9400080C00080C0C0008F8B500BFF8BC08BC31
:100BA4009E467047F8B500BFF8BC08BC9E46704727
:100BB40000C201000000000000000000000000006E
:100BC4000C0000000000000000000000000600000F
:100BD400020000000300000000000000000000000C
:100BE40007000000000000000000000001020304F0
:0C0BF400060708090000000001020304CD
:080C000004F6FF7F0100000073
:040C0800B901000826
:040C0C009501000846
:040C10000024F400C8
:0400000508000B01E3
:00000001FF
